{
  "_format": "hh-sol-artifact-1",
  "contractName": "TwitterContract",
  "sourceName": "contracts/TwitterClone.sol",
  "abi": [
    {
      "anonymous": false,
      "inputs": [
        {
          "indexed": false,
          "internalType": "address",
          "name": "recipient",
          "type": "address"
        },
        {
          "indexed": false,
          "internalType": "uint256",
          "name": "tweet_id",
          "type": "uint256"
        }
      ],
      "name": "eventAddTweet",
      "type": "event"
    },
    {
      "anonymous": false,
      "inputs": [
        {
          "indexed": false,
          "internalType": "uint256",
          "name": "tweet_id",
          "type": "uint256"
        }
      ],
      "name": "eventDeleteTweet",
      "type": "event"
    },
    {
      "anonymous": false,
      "inputs": [
        {
          "indexed": false,
          "internalType": "uint256",
          "name": "tweet_id",
          "type": "uint256"
        }
      ],
      "name": "eventUpdateTweet",
      "type": "event"
    },
    {
      "inputs": [
        {
          "internalType": "string",
          "name": "tweet_text",
          "type": "string"
        }
      ],
      "name": "addTweet",
      "outputs": [],
      "stateMutability": "nonpayable",
      "type": "function"
    },
    {
      "inputs": [
        {
          "internalType": "uint256",
          "name": "tweet_id",
          "type": "uint256"
        }
      ],
      "name": "deleteTweet",
      "outputs": [],
      "stateMutability": "nonpayable",
      "type": "function"
    },
    {
      "inputs": [],
      "name": "getAllTweets",
      "outputs": [
        {
          "components": [
            {
              "internalType": "uint256",
              "name": "id",
              "type": "uint256"
            },
            {
              "internalType": "address",
              "name": "username",
              "type": "address"
            },
            {
              "internalType": "string",
              "name": "tweet_text",
              "type": "string"
            },
            {
              "internalType": "bool",
              "name": "is_deleted",
              "type": "bool"
            }
          ],
          "internalType": "struct TwitterContract.Tweet[]",
          "name": "",
          "type": "tuple[]"
        }
      ],
      "stateMutability": "view",
      "type": "function"
    },
    {
      "inputs": [],
      "name": "getMyTweets",
      "outputs": [
        {
          "components": [
            {
              "internalType": "uint256",
              "name": "id",
              "type": "uint256"
            },
            {
              "internalType": "address",
              "name": "username",
              "type": "address"
            },
            {
              "internalType": "string",
              "name": "tweet_text",
              "type": "string"
            },
            {
              "internalType": "bool",
              "name": "is_deleted",
              "type": "bool"
            }
          ],
          "internalType": "struct TwitterContract.Tweet[]",
          "name": "",
          "type": "tuple[]"
        }
      ],
      "stateMutability": "view",
      "type": "function"
    },
    {
      "inputs": [
        {
          "internalType": "uint256",
          "name": "tweet_id",
          "type": "uint256"
        },
        {
          "internalType": "string",
          "name": "update_text",
          "type": "string"
        }
      ],
      "name": "updateTweet",
      "outputs": [],
      "stateMutability": "nonpayable",
      "type": "function"
    }
  ],
  "bytecode": "0x608060405234801561001057600080fd5b50611349806100206000396000f3fe608060405234801561001057600080fd5b50600436106100575760003560e01c8063532561351461005c5780635775912a1461007a57806359ee12bc146100965780637c0aa77a146100b2578063aefedbc2146100ce575b600080fd5b6100646100ec565b6040516100719190610cc4565b60405180910390f35b610094600480360381019061008f9190610d26565b6103cd565b005b6100b060048036038101906100ab9190610e88565b6104b2565b005b6100cc60048036038101906100c79190610ed1565b610639565b005b6100d661070e565b6040516100e39190610cc4565b60405180910390f35b60606000808054905067ffffffffffffffff81111561010e5761010d610d5d565b5b60405190808252806020026020018201604052801561014757816020015b610134610a5a565b81526020019060019003908161012c5790505b5090506000805b60008054905081101561031357600015156000828154811061017357610172610f2d565b5b906000526020600020906004020160030160009054906101000a900460ff1615150361030057600081815481106101ad576101ac610f2d565b5b9060005260206000209060040201604051806080016040529081600082015481526020016001820160009054906101000a900473ffffffffffffffffffffffffffffffffffffffff1673ffffffffffffffffffffffffffffffffffffffff1673ffffffffffffffffffffffffffffffffffffffff16815260200160028201805461023690610f8b565b80601f016020809104026020016040519081016040528092919081815260200182805461026290610f8b565b80156102af5780601f10610284576101008083540402835291602001916102af565b820191906000526020600020905b81548152906001019060200180831161029257829003601f168201915b505050505081526020016003820160009054906101000a900460ff1615151515815250508383815181106102e6576102e5610f2d565b5b602002602001018190525081806102fc90610feb565b9250505b808061030b90610feb565b91505061014e565b5060008167ffffffffffffffff8111156103305761032f610d5d565b5b60405190808252806020026020018201604052801561036957816020015b610356610a5a565b81526020019060019003908161034e5790505b50905060005b828110156103c35783818151811061038a57610389610f2d565b5b60200260200101518282815181106103a5576103a4610f2d565b5b602002602001018190525080806103bb90610feb565b91505061036f565b5080935050505090565b6000600190503373ffffffffffffffffffffffffffffffffffffffff166001600084815260200190815260200160002060009054906101000a900473ffffffffffffffffffffffffffffffffffffffff1673ffffffffffffffffffffffffffffffffffffffff16036104ae57806000838154811061044e5761044d610f2d565b5b906000526020600020906004020160030160006101000a81548160ff0219169083151502179055507f53962070ccb0a86579bbcae688206b2e477e7e11341e4c52e0c374f592a2ba0b826040516104a59190611042565b60405180910390a15b5050565b60008080549050905060008060405180608001604052808481526020013373ffffffffffffffffffffffffffffffffffffffff16815260200185815260200183151581525090806001815401808255809150506001900390600052602060002090600402016000909190919091506000820151816000015560208201518160010160006101000a81548173ffffffffffffffffffffffffffffffffffffffff021916908373ffffffffffffffffffffffffffffffffffffffff16021790555060408201518160020190816105869190611209565b5060608201518160030160006101000a81548160ff0219169083151502179055505050336001600084815260200190815260200160002060006101000a81548173ffffffffffffffffffffffffffffffffffffffff021916908373ffffffffffffffffffffffffffffffffffffffff1602179055507fd78922580099824edfbf1aca63ce546fb7510cfaef7ded4134778616728420b0338360405161062c9291906112ea565b60405180910390a1505050565b3373ffffffffffffffffffffffffffffffffffffffff166001600084815260200190815260200160002060009054906101000a900473ffffffffffffffffffffffffffffffffffffffff1673ffffffffffffffffffffffffffffffffffffffff160361070a5780600083815481106106b4576106b3610f2d565b5b906000526020600020906004020160020190816106d19190611209565b507f3b643b28743c7b228d4809b6e32b41a90f01e23ffcb00e2374b925369d7f58cd826040516107019190611042565b60405180910390a15b5050565b60606000808054905067ffffffffffffffff8111156107305761072f610d5d565b5b60405190808252806020026020018201604052801561076957816020015b610756610a5a565b81526020019060019003908161074e5790505b5090506000805b6000805490508110156109a0573373ffffffffffffffffffffffffffffffffffffffff166001600083815260200190815260200160002060009054906101000a900473ffffffffffffffffffffffffffffffffffffffff1673ffffffffffffffffffffffffffffffffffffffff16148015610821575060001515600082815481106107fe576107fd610f2d565b5b906000526020600020906004020160030160009054906101000a900460ff161515145b1561098d576000818154811061083a57610839610f2d565b5b9060005260206000209060040201604051806080016040529081600082015481526020016001820160009054906101000a900473ffffffffffffffffffffffffffffffffffffffff1673ffffffffffffffffffffffffffffffffffffffff1673ffffffffffffffffffffffffffffffffffffffff1681526020016002820180546108c390610f8b565b80601f01602080910402602001604051908101604052809291908181526020018280546108ef90610f8b565b801561093c5780601f106109115761010080835404028352916020019161093c565b820191906000526020600020905b81548152906001019060200180831161091f57829003601f168201915b505050505081526020016003820160009054906101000a900460ff16151515158152505083838151811061097357610972610f2d565b5b6020026020010181905250818061098990610feb565b9250505b808061099890610feb565b915050610770565b5060008167ffffffffffffffff8111156109bd576109bc610d5d565b5b6040519080825280602002602001820160405280156109f657816020015b6109e3610a5a565b8152602001906001900390816109db5790505b50905060005b82811015610a5057838181518110610a1757610a16610f2d565b5b6020026020010151828281518110610a3257610a31610f2d565b5b60200260200101819052508080610a4890610feb565b9150506109fc565b5080935050505090565b604051806080016040528060008152602001600073ffffffffffffffffffffffffffffffffffffffff168152602001606081526020016000151581525090565b600081519050919050565b600082825260208201905092915050565b6000819050602082019050919050565b6000819050919050565b610ad981610ac6565b82525050565b600073ffffffffffffffffffffffffffffffffffffffff82169050919050565b6000610b0a82610adf565b9050919050565b610b1a81610aff565b82525050565b600081519050919050565b600082825260208201905092915050565b60005b83811015610b5a578082015181840152602081019050610b3f565b60008484015250505050565b6000601f19601f8301169050919050565b6000610b8282610b20565b610b8c8185610b2b565b9350610b9c818560208601610b3c565b610ba581610b66565b840191505092915050565b60008115159050919050565b610bc581610bb0565b82525050565b6000608083016000830151610be36000860182610ad0565b506020830151610bf66020860182610b11565b5060408301518482036040860152610c0e8282610b77565b9150506060830151610c236060860182610bbc565b508091505092915050565b6000610c3a8383610bcb565b905092915050565b6000602082019050919050565b6000610c5a82610a9a565b610c648185610aa5565b935083602082028501610c7685610ab6565b8060005b85811015610cb25784840389528151610c938582610c2e565b9450610c9e83610c42565b925060208a01995050600181019050610c7a565b50829750879550505050505092915050565b60006020820190508181036000830152610cde8184610c4f565b905092915050565b6000604051905090565b600080fd5b600080fd5b610d0381610ac6565b8114610d0e57600080fd5b50565b600081359050610d2081610cfa565b92915050565b600060208284031215610d3c57610d3b610cf0565b5b6000610d4a84828501610d11565b91505092915050565b600080fd5b600080fd5b7f4e487b7100000000000000000000000000000000000000000000000000000000600052604160045260246000fd5b610d9582610b66565b810181811067ffffffffffffffff82111715610db457610db3610d5d565b5b80604052505050565b6000610dc7610ce6565b9050610dd38282610d8c565b919050565b600067ffffffffffffffff821115610df357610df2610d5d565b5b610dfc82610b66565b9050602081019050919050565b82818337600083830152505050565b6000610e2b610e2684610dd8565b610dbd565b905082815260208101848484011115610e4757610e46610d58565b5b610e52848285610e09565b509392505050565b600082601f830112610e6f57610e6e610d53565b5b8135610e7f848260208601610e18565b91505092915050565b600060208284031215610e9e57610e9d610cf0565b5b600082013567ffffffffffffffff811115610ebc57610ebb610cf5565b5b610ec884828501610e5a565b91505092915050565b60008060408385031215610ee857610ee7610cf0565b5b6000610ef685828601610d11565b925050602083013567ffffffffffffffff811115610f1757610f16610cf5565b5b610f2385828601610e5a565b9150509250929050565b7f4e487b7100000000000000000000000000000000000000000000000000000000600052603260045260246000fd5b7f4e487b7100000000000000000000000000000000000000000000000000000000600052602260045260246000fd5b60006002820490506001821680610fa357607f821691505b602082108103610fb657610fb5610f5c565b5b50919050565b7f4e487b7100000000000000000000000000000000000000000000000000000000600052601160045260246000fd5b6000610ff682610ac6565b91507fffffffffffffffffffffffffffffffffffffffffffffffffffffffffffffffff820361102857611027610fbc565b5b600182019050919050565b61103c81610ac6565b82525050565b60006020820190506110576000830184611033565b92915050565b60008190508160005260206000209050919050565b60006020601f8301049050919050565b600082821b905092915050565b6000600883026110bf7fffffffffffffffffffffffffffffffffffffffffffffffffffffffffffffffff82611082565b6110c98683611082565b95508019841693508086168417925050509392505050565b6000819050919050565b60006111066111016110fc84610ac6565b6110e1565b610ac6565b9050919050565b6000819050919050565b611120836110eb565b61113461112c8261110d565b84845461108f565b825550505050565b600090565b61114961113c565b611154818484611117565b505050565b5b818110156111785761116d600082611141565b60018101905061115a565b5050565b601f8211156111bd5761118e8161105d565b61119784611072565b810160208510156111a6578190505b6111ba6111b285611072565b830182611159565b50505b505050565b600082821c905092915050565b60006111e0600019846008026111c2565b1980831691505092915050565b60006111f983836111cf565b9150826002028217905092915050565b61121282610b20565b67ffffffffffffffff81111561122b5761122a610d5d565b5b6112358254610f8b565b61124082828561117c565b600060209050601f8311600181146112735760008415611261578287015190505b61126b85826111ed565b8655506112d3565b601f1984166112818661105d565b60005b828110156112a957848901518255600182019150602085019450602081019050611284565b868310156112c657848901516112c2601f8916826111cf565b8355505b6001600288020188555050505b505050505050565b6112e481610aff565b82525050565b60006040820190506112ff60008301856112db565b61130c6020830184611033565b939250505056fea2646970667358221220bb76f8ad4f549dbcb8ea1121fb456812ef460c0bf5c3c4d10ad72d68c31bd8ea64736f6c63430008110033",
  "linkReferences": {},
  "deployedLinkReferences": {}
}