{
  "_format": "hh-sol-artifact-1",
  "contractName": "TwitterContract",
  "sourceName": "contracts/TwitterClone.sol",
  "abi": [
    {
      "anonymous": false,
      "inputs": [
        {
          "indexed": false,
          "internalType": "address",
          "name": "recipient",
          "type": "address"
        },
        {
          "indexed": false,
          "internalType": "uint256",
          "name": "tweetId",
          "type": "uint256"
        }
      ],
      "name": "AddTweet",
      "type": "event"
    },
    {
      "anonymous": false,
      "inputs": [
        {
          "indexed": false,
          "internalType": "uint256",
          "name": "tweetId",
          "type": "uint256"
        },
        {
          "indexed": false,
          "internalType": "bool",
          "name": "isDeleted",
          "type": "bool"
        }
      ],
      "name": "DeleteTweet",
      "type": "event"
    },
    {
      "inputs": [
        {
          "internalType": "string",
          "name": "tweetText",
          "type": "string"
        },
        {
          "internalType": "bool",
          "name": "isDeleted",
          "type": "bool"
        }
      ],
      "name": "addTweet",
      "outputs": [],
      "stateMutability": "nonpayable",
      "type": "function"
    },
    {
      "inputs": [
        {
          "internalType": "uint256",
          "name": "tweetId",
          "type": "uint256"
        },
        {
          "internalType": "bool",
          "name": "isDeleted",
          "type": "bool"
        }
      ],
      "name": "deleteTweet",
      "outputs": [],
      "stateMutability": "nonpayable",
      "type": "function"
    },
    {
      "inputs": [],
      "name": "getAllTweets",
      "outputs": [
        {
          "components": [
            {
              "internalType": "uint256",
              "name": "id",
              "type": "uint256"
            },
            {
              "internalType": "address",
              "name": "username",
              "type": "address"
            },
            {
              "internalType": "string",
              "name": "tweetText",
              "type": "string"
            },
            {
              "internalType": "bool",
              "name": "isDeleted",
              "type": "bool"
            }
          ],
          "internalType": "struct TwitterContract.Tweet[]",
          "name": "",
          "type": "tuple[]"
        }
      ],
      "stateMutability": "view",
      "type": "function"
    },
    {
      "inputs": [],
      "name": "getMyTweets",
      "outputs": [
        {
          "components": [
            {
              "internalType": "uint256",
              "name": "id",
              "type": "uint256"
            },
            {
              "internalType": "address",
              "name": "username",
              "type": "address"
            },
            {
              "internalType": "string",
              "name": "tweetText",
              "type": "string"
            },
            {
              "internalType": "bool",
              "name": "isDeleted",
              "type": "bool"
            }
          ],
          "internalType": "struct TwitterContract.Tweet[]",
          "name": "",
          "type": "tuple[]"
        }
      ],
      "stateMutability": "view",
      "type": "function"
    }
  ],
  "bytecode": "0x608060405234801561001057600080fd5b506110f5806100206000396000f3fe608060405234801561001057600080fd5b506004361061004c5760003560e01c80635325613514610051578063aefedbc21461006f578063e580339f1461008d578063f0312a37146100a9575b600080fd5b6100596100c5565b6040516100669190610a5d565b60405180910390f35b6100776102f5565b6040516100849190610a5d565b60405180910390f35b6100a760048036038101906100a29190610bf4565b61058c565b005b6100c360048036038101906100be9190610c7c565b610712565b005b60606000808054905067ffffffffffffffff8111156100e7576100e6610a9d565b5b60405190808252806020026020018201604052801561012057816020015b61010d6107f3565b8152602001906001900390816101055790505b5090506000805b6000805490508110156102ec57600015156000828154811061014c5761014b610cbc565b5b906000526020600020906004020160030160009054906101000a900460ff161515036102d9576000818154811061018657610185610cbc565b5b9060005260206000209060040201604051806080016040529081600082015481526020016001820160009054906101000a900473ffffffffffffffffffffffffffffffffffffffff1673ffffffffffffffffffffffffffffffffffffffff1673ffffffffffffffffffffffffffffffffffffffff16815260200160028201805461020f90610d1a565b80601f016020809104026020016040519081016040528092919081815260200182805461023b90610d1a565b80156102885780601f1061025d57610100808354040283529160200191610288565b820191906000526020600020905b81548152906001019060200180831161026b57829003601f168201915b505050505081526020016003820160009054906101000a900460ff1615151515815250508383815181106102bf576102be610cbc565b5b602002602001018190525081806102d590610d7a565b9250505b80806102e490610d7a565b915050610127565b50819250505090565b60606000808054905067ffffffffffffffff81111561031757610316610a9d565b5b60405190808252806020026020018201604052801561035057816020015b61033d6107f3565b8152602001906001900390816103355790505b5090506000805b600080549050811015610583573373ffffffffffffffffffffffffffffffffffffffff166001600083815260200190815260200160002060009054906101000a900473ffffffffffffffffffffffffffffffffffffffff1673ffffffffffffffffffffffffffffffffffffffff16036105705760001515600082815481106103e2576103e1610cbc565b5b906000526020600020906004020160030160009054906101000a900460ff1615150361056f576000818154811061041c5761041b610cbc565b5b9060005260206000209060040201604051806080016040529081600082015481526020016001820160009054906101000a900473ffffffffffffffffffffffffffffffffffffffff1673ffffffffffffffffffffffffffffffffffffffff1673ffffffffffffffffffffffffffffffffffffffff1681526020016002820180546104a590610d1a565b80601f01602080910402602001604051908101604052809291908181526020018280546104d190610d1a565b801561051e5780601f106104f35761010080835404028352916020019161051e565b820191906000526020600020905b81548152906001019060200180831161050157829003601f168201915b505050505081526020016003820160009054906101000a900460ff16151515158152505083838151811061055557610554610cbc565b5b6020026020010181905250818061056b90610d7a565b9250505b5b808061057b90610d7a565b915050610357565b50819250505090565b600080805490509050600060405180608001604052808381526020013373ffffffffffffffffffffffffffffffffffffffff16815260200185815260200184151581525090806001815401808255809150506001900390600052602060002090600402016000909190919091506000820151816000015560208201518160010160006101000a81548173ffffffffffffffffffffffffffffffffffffffff021916908373ffffffffffffffffffffffffffffffffffffffff160217905550604082015181600201908161065f9190610f6e565b5060608201518160030160006101000a81548160ff0219169083151502179055505050336001600083815260200190815260200160002060006101000a81548173ffffffffffffffffffffffffffffffffffffffff021916908373ffffffffffffffffffffffffffffffffffffffff1602179055507f8b2db9b424f26463510ef5b02c16f2465836b52081b51d2112ec76102053bdea338260405161070592919061105e565b60405180910390a1505050565b3373ffffffffffffffffffffffffffffffffffffffff166001600084815260200190815260200160002060009054906101000a900473ffffffffffffffffffffffffffffffffffffffff1673ffffffffffffffffffffffffffffffffffffffff16036107ef57806000838154811061078d5761078c610cbc565b5b906000526020600020906004020160030160006101000a81548160ff0219169083151502179055507f2430f837dd2fb40e08c064be9db3d0cf2a7a21f8fe716a2a41787dafc66a7e2a82826040516107e6929190611096565b60405180910390a15b5050565b604051806080016040528060008152602001600073ffffffffffffffffffffffffffffffffffffffff168152602001606081526020016000151581525090565b600081519050919050565b600082825260208201905092915050565b6000819050602082019050919050565b6000819050919050565b6108728161085f565b82525050565b600073ffffffffffffffffffffffffffffffffffffffff82169050919050565b60006108a382610878565b9050919050565b6108b381610898565b82525050565b600081519050919050565b600082825260208201905092915050565b60005b838110156108f35780820151818401526020810190506108d8565b60008484015250505050565b6000601f19601f8301169050919050565b600061091b826108b9565b61092581856108c4565b93506109358185602086016108d5565b61093e816108ff565b840191505092915050565b60008115159050919050565b61095e81610949565b82525050565b600060808301600083015161097c6000860182610869565b50602083015161098f60208601826108aa565b50604083015184820360408601526109a78282610910565b91505060608301516109bc6060860182610955565b508091505092915050565b60006109d38383610964565b905092915050565b6000602082019050919050565b60006109f382610833565b6109fd818561083e565b935083602082028501610a0f8561084f565b8060005b85811015610a4b5784840389528151610a2c85826109c7565b9450610a37836109db565b925060208a01995050600181019050610a13565b50829750879550505050505092915050565b60006020820190508181036000830152610a7781846109e8565b905092915050565b6000604051905090565b600080fd5b600080fd5b600080fd5b600080fd5b7f4e487b7100000000000000000000000000000000000000000000000000000000600052604160045260246000fd5b610ad5826108ff565b810181811067ffffffffffffffff82111715610af457610af3610a9d565b5b80604052505050565b6000610b07610a7f565b9050610b138282610acc565b919050565b600067ffffffffffffffff821115610b3357610b32610a9d565b5b610b3c826108ff565b9050602081019050919050565b82818337600083830152505050565b6000610b6b610b6684610b18565b610afd565b905082815260208101848484011115610b8757610b86610a98565b5b610b92848285610b49565b509392505050565b600082601f830112610baf57610bae610a93565b5b8135610bbf848260208601610b58565b91505092915050565b610bd181610949565b8114610bdc57600080fd5b50565b600081359050610bee81610bc8565b92915050565b60008060408385031215610c0b57610c0a610a89565b5b600083013567ffffffffffffffff811115610c2957610c28610a8e565b5b610c3585828601610b9a565b9250506020610c4685828601610bdf565b9150509250929050565b610c598161085f565b8114610c6457600080fd5b50565b600081359050610c7681610c50565b92915050565b60008060408385031215610c9357610c92610a89565b5b6000610ca185828601610c67565b9250506020610cb285828601610bdf565b9150509250929050565b7f4e487b7100000000000000000000000000000000000000000000000000000000600052603260045260246000fd5b7f4e487b7100000000000000000000000000000000000000000000000000000000600052602260045260246000fd5b60006002820490506001821680610d3257607f821691505b602082108103610d4557610d44610ceb565b5b50919050565b7f4e487b7100000000000000000000000000000000000000000000000000000000600052601160045260246000fd5b6000610d858261085f565b91507fffffffffffffffffffffffffffffffffffffffffffffffffffffffffffffffff8203610db757610db6610d4b565b5b600182019050919050565b60008190508160005260206000209050919050565b60006020601f8301049050919050565b600082821b905092915050565b600060088302610e247fffffffffffffffffffffffffffffffffffffffffffffffffffffffffffffffff82610de7565b610e2e8683610de7565b95508019841693508086168417925050509392505050565b6000819050919050565b6000610e6b610e66610e618461085f565b610e46565b61085f565b9050919050565b6000819050919050565b610e8583610e50565b610e99610e9182610e72565b848454610df4565b825550505050565b600090565b610eae610ea1565b610eb9818484610e7c565b505050565b5b81811015610edd57610ed2600082610ea6565b600181019050610ebf565b5050565b601f821115610f2257610ef381610dc2565b610efc84610dd7565b81016020851015610f0b578190505b610f1f610f1785610dd7565b830182610ebe565b50505b505050565b600082821c905092915050565b6000610f4560001984600802610f27565b1980831691505092915050565b6000610f5e8383610f34565b9150826002028217905092915050565b610f77826108b9565b67ffffffffffffffff811115610f9057610f8f610a9d565b5b610f9a8254610d1a565b610fa5828285610ee1565b600060209050601f831160018114610fd85760008415610fc6578287015190505b610fd08582610f52565b865550611038565b601f198416610fe686610dc2565b60005b8281101561100e57848901518255600182019150602085019450602081019050610fe9565b8683101561102b5784890151611027601f891682610f34565b8355505b6001600288020188555050505b505050505050565b61104981610898565b82525050565b6110588161085f565b82525050565b60006040820190506110736000830185611040565b611080602083018461104f565b9392505050565b61109081610949565b82525050565b60006040820190506110ab600083018561104f565b6110b86020830184611087565b939250505056fea2646970667358221220cdab733069c187abba2d2e49e1555581900dd451825d0ba5d06115aadeb61a1564736f6c63430008110033",
  "linkReferences": {},
  "deployedLinkReferences": {}
}